{
  "_format": "hh-sol-artifact-1",
  "contractName": "MyEpicNFT",
  "sourceName": "contracts/MyEpicNFT.sol",
  "abi": [
    {
      "inputs": [],
      "stateMutability": "nonpayable",
      "type": "constructor"
    },
    {
      "anonymous": false,
      "inputs": [
        {
          "indexed": true,
          "internalType": "address",
          "name": "owner",
          "type": "address"
        },
        {
          "indexed": true,
          "internalType": "address",
          "name": "approved",
          "type": "address"
        },
        {
          "indexed": true,
          "internalType": "uint256",
          "name": "tokenId",
          "type": "uint256"
        }
      ],
      "name": "Approval",
      "type": "event"
    },
    {
      "anonymous": false,
      "inputs": [
        {
          "indexed": true,
          "internalType": "address",
          "name": "owner",
          "type": "address"
        },
        {
          "indexed": true,
          "internalType": "address",
          "name": "operator",
          "type": "address"
        },
        {
          "indexed": false,
          "internalType": "bool",
          "name": "approved",
          "type": "bool"
        }
      ],
      "name": "ApprovalForAll",
      "type": "event"
    },
    {
      "anonymous": false,
      "inputs": [
        {
          "indexed": false,
          "internalType": "address",
          "name": "sender",
          "type": "address"
        },
        {
          "indexed": false,
          "internalType": "uint256",
          "name": "tokenId",
          "type": "uint256"
        }
      ],
      "name": "NewEpicNFTMinted",
      "type": "event"
    },
    {
      "anonymous": false,
      "inputs": [
        {
          "indexed": true,
          "internalType": "address",
          "name": "from",
          "type": "address"
        },
        {
          "indexed": true,
          "internalType": "address",
          "name": "to",
          "type": "address"
        },
        {
          "indexed": true,
          "internalType": "uint256",
          "name": "tokenId",
          "type": "uint256"
        }
      ],
      "name": "Transfer",
      "type": "event"
    },
    {
      "inputs": [
        {
          "internalType": "address",
          "name": "to",
          "type": "address"
        },
        {
          "internalType": "uint256",
          "name": "tokenId",
          "type": "uint256"
        }
      ],
      "name": "approve",
      "outputs": [],
      "stateMutability": "nonpayable",
      "type": "function"
    },
    {
      "inputs": [
        {
          "internalType": "address",
          "name": "owner",
          "type": "address"
        }
      ],
      "name": "balanceOf",
      "outputs": [
        {
          "internalType": "uint256",
          "name": "",
          "type": "uint256"
        }
      ],
      "stateMutability": "view",
      "type": "function"
    },
    {
      "inputs": [
        {
          "internalType": "uint256",
          "name": "tokenId",
          "type": "uint256"
        }
      ],
      "name": "getApproved",
      "outputs": [
        {
          "internalType": "address",
          "name": "",
          "type": "address"
        }
      ],
      "stateMutability": "view",
      "type": "function"
    },
    {
      "inputs": [],
      "name": "getTotalNFTsMintedSoFar",
      "outputs": [
        {
          "internalType": "uint256",
          "name": "",
          "type": "uint256"
        }
      ],
      "stateMutability": "view",
      "type": "function"
    },
    {
      "inputs": [
        {
          "internalType": "address",
          "name": "owner",
          "type": "address"
        },
        {
          "internalType": "address",
          "name": "operator",
          "type": "address"
        }
      ],
      "name": "isApprovedForAll",
      "outputs": [
        {
          "internalType": "bool",
          "name": "",
          "type": "bool"
        }
      ],
      "stateMutability": "view",
      "type": "function"
    },
    {
      "inputs": [],
      "name": "makeAnEpicNFT",
      "outputs": [],
      "stateMutability": "nonpayable",
      "type": "function"
    },
    {
      "inputs": [],
      "name": "name",
      "outputs": [
        {
          "internalType": "string",
          "name": "",
          "type": "string"
        }
      ],
      "stateMutability": "view",
      "type": "function"
    },
    {
      "inputs": [
        {
          "internalType": "uint256",
          "name": "tokenId",
          "type": "uint256"
        }
      ],
      "name": "ownerOf",
      "outputs": [
        {
          "internalType": "address",
          "name": "",
          "type": "address"
        }
      ],
      "stateMutability": "view",
      "type": "function"
    },
    {
      "inputs": [
        {
          "internalType": "uint256",
          "name": "tokenId",
          "type": "uint256"
        }
      ],
      "name": "pickRandomColor",
      "outputs": [
        {
          "internalType": "string",
          "name": "",
          "type": "string"
        }
      ],
      "stateMutability": "view",
      "type": "function"
    },
    {
      "inputs": [
        {
          "internalType": "string[]",
          "name": "array",
          "type": "string[]"
        },
        {
          "internalType": "string",
          "name": "seedWord",
          "type": "string"
        },
        {
          "internalType": "uint256",
          "name": "tokenId",
          "type": "uint256"
        }
      ],
      "name": "pickRandomWordFromArray",
      "outputs": [
        {
          "internalType": "string",
          "name": "",
          "type": "string"
        }
      ],
      "stateMutability": "view",
      "type": "function"
    },
    {
      "inputs": [
        {
          "internalType": "address",
          "name": "from",
          "type": "address"
        },
        {
          "internalType": "address",
          "name": "to",
          "type": "address"
        },
        {
          "internalType": "uint256",
          "name": "tokenId",
          "type": "uint256"
        }
      ],
      "name": "safeTransferFrom",
      "outputs": [],
      "stateMutability": "nonpayable",
      "type": "function"
    },
    {
      "inputs": [
        {
          "internalType": "address",
          "name": "from",
          "type": "address"
        },
        {
          "internalType": "address",
          "name": "to",
          "type": "address"
        },
        {
          "internalType": "uint256",
          "name": "tokenId",
          "type": "uint256"
        },
        {
          "internalType": "bytes",
          "name": "data",
          "type": "bytes"
        }
      ],
      "name": "safeTransferFrom",
      "outputs": [],
      "stateMutability": "nonpayable",
      "type": "function"
    },
    {
      "inputs": [
        {
          "internalType": "address",
          "name": "operator",
          "type": "address"
        },
        {
          "internalType": "bool",
          "name": "approved",
          "type": "bool"
        }
      ],
      "name": "setApprovalForAll",
      "outputs": [],
      "stateMutability": "nonpayable",
      "type": "function"
    },
    {
      "inputs": [
        {
          "internalType": "bytes4",
          "name": "interfaceId",
          "type": "bytes4"
        }
      ],
      "name": "supportsInterface",
      "outputs": [
        {
          "internalType": "bool",
          "name": "",
          "type": "bool"
        }
      ],
      "stateMutability": "view",
      "type": "function"
    },
    {
      "inputs": [],
      "name": "symbol",
      "outputs": [
        {
          "internalType": "string",
          "name": "",
          "type": "string"
        }
      ],
      "stateMutability": "view",
      "type": "function"
    },
    {
      "inputs": [
        {
          "internalType": "uint256",
          "name": "tokenId",
          "type": "uint256"
        }
      ],
      "name": "tokenURI",
      "outputs": [
        {
          "internalType": "string",
          "name": "",
          "type": "string"
        }
      ],
      "stateMutability": "view",
      "type": "function"
    },
    {
      "inputs": [
        {
          "internalType": "address",
          "name": "from",
          "type": "address"
        },
        {
          "internalType": "address",
          "name": "to",
          "type": "address"
        },
        {
          "internalType": "uint256",
          "name": "tokenId",
          "type": "uint256"
        }
      ],
      "name": "transferFrom",
      "outputs": [],
      "stateMutability": "nonpayable",
      "type": "function"
    }
  ],
  "bytecode": "0x608060405260405180610100016040528060d381526020016200496260d39139600890816200002f919062000ba2565b5060405180608001604052806056815260200162004a5960569139600990816200005a919062000ba2565b506040518060400160405280600d81526020017f3c2f746578743e3c2f7376673e00000000000000000000000000000000000000815250600a9081620000a1919062000ba2565b506040518060c001604052806040518060400160405280600581526020017f4c6561766500000000000000000000000000000000000000000000000000000081525081526020016040518060400160405280600881526020017f506f72747261697400000000000000000000000000000000000000000000000081525081526020016040518060400160405280600c81526020017f52656c6174696f6e73686970000000000000000000000000000000000000000081525081526020016040518060400160405280600481526020017f476f616c0000000000000000000000000000000000000000000000000000000081525081526020016040518060400160405280600481526020017f43616c6d0000000000000000000000000000000000000000000000000000000081525081526020016040518060400160405280600981526020017f496d706f7274616e740000000000000000000000000000000000000000000000815250815250600b9060066200021f9291906200083b565b506040518060c001604052806040518060400160405280600581526020017f4769616e7400000000000000000000000000000000000000000000000000000081525081526020016040518060400160405280600781526020017f436f6d62696e650000000000000000000000000000000000000000000000000081525081526020016040518060400160405280600781526020017f5061696e7465720000000000000000000000000000000000000000000000000081525081526020016040518060400160405280600981526020017f45766f6c7574696f6e000000000000000000000000000000000000000000000081525081526020016040518060400160405280600281526020017f446f00000000000000000000000000000000000000000000000000000000000081525081526020016040518060400160405280600581526020017f53636f7265000000000000000000000000000000000000000000000000000000815250815250600c9060066200039d9291906200083b565b506040518060c001604052806040518060400160405280600681526020017f446f75626c65000000000000000000000000000000000000000000000000000081525081526020016040518060400160405280600581526020017f466169727900000000000000000000000000000000000000000000000000000081525081526020016040518060400160405280600581526020017f576f726c6400000000000000000000000000000000000000000000000000000081525081526020016040518060400160405280600881526020017f5374616e6461726400000000000000000000000000000000000000000000000081525081526020016040518060400160405280600481526020017f537461720000000000000000000000000000000000000000000000000000000081525081526020016040518060400160405280600981526020017f4661766f75726974650000000000000000000000000000000000000000000000815250815250600d9060066200051b9291906200083b565b506040518060c001604052806040518060400160405280600381526020017f726564000000000000000000000000000000000000000000000000000000000081525081526020016040518060400160405280600781526020017f233038433241380000000000000000000000000000000000000000000000000081525081526020016040518060400160405280600581526020017f626c61636b00000000000000000000000000000000000000000000000000000081525081526020016040518060400160405280600681526020017f79656c6c6f77000000000000000000000000000000000000000000000000000081525081526020016040518060400160405280600481526020017f626c75650000000000000000000000000000000000000000000000000000000081525081526020016040518060400160405280600581526020017f677265656e000000000000000000000000000000000000000000000000000000815250815250600e906006620006999291906200083b565b50348015620006a757600080fd5b506040518060400160405280600e81526020017f5261696e65724c6172696e4e46540000000000000000000000000000000000008152506040518060400160405280600581526020017f4c4152494e000000000000000000000000000000000000000000000000000000815250816000908162000725919062000ba2565b50806001908162000737919062000ba2565b5050506200076960405180606001604052806024815260200162004a35602491396200076f60201b620011e51760201c565b62000d3c565b6200080f8160405160240162000786919062000d18565b6040516020818303038152906040527f41304fac000000000000000000000000000000000000000000000000000000007bffffffffffffffffffffffffffffffffffffffffffffffffffffffff19166020820180517bffffffffffffffffffffffffffffffffffffffffffffffffffffffff83818316178352505050506200081260201b60201c565b50565b60008151905060006a636f6e736f6c652e6c6f679050602083016000808483855afa5050505050565b82805482825590600052602060002090810192821562000888579160200282015b828111156200088757825182908162000876919062000ba2565b50916020019190600101906200085c565b5b5090506200089791906200089b565b5090565b5b80821115620008bf5760008181620008b59190620008c3565b506001016200089c565b5090565b508054620008d19062000991565b6000825580601f10620008e5575062000906565b601f01602090049060005260206000209081019062000905919062000909565b5b50565b5b80821115620009245760008160009055506001016200090a565b5090565b600081519050919050565b7f4e487b7100000000000000000000000000000000000000000000000000000000600052604160045260246000fd5b7f4e487b7100000000000000000000000000000000000000000000000000000000600052602260045260246000fd5b60006002820490506001821680620009aa57607f821691505b602082108103620009c057620009bf62000962565b5b50919050565b60008190508160005260206000209050919050565b60006020601f8301049050919050565b600082821b905092915050565b60006008830262000a2a7fffffffffffffffffffffffffffffffffffffffffffffffffffffffffffffffff82620009eb565b62000a368683620009eb565b95508019841693508086168417925050509392505050565b6000819050919050565b6000819050919050565b600062000a8362000a7d62000a778462000a4e565b62000a58565b62000a4e565b9050919050565b6000819050919050565b62000a9f8362000a62565b62000ab762000aae8262000a8a565b848454620009f8565b825550505050565b600090565b62000ace62000abf565b62000adb81848462000a94565b505050565b5b8181101562000b035762000af760008262000ac4565b60018101905062000ae1565b5050565b601f82111562000b525762000b1c81620009c6565b62000b2784620009db565b8101602085101562000b37578190505b62000b4f62000b4685620009db565b83018262000ae0565b50505b505050565b600082821c905092915050565b600062000b776000198460080262000b57565b1980831691505092915050565b600062000b92838362000b64565b9150826002028217905092915050565b62000bad8262000928565b67ffffffffffffffff81111562000bc95762000bc862000933565b5b62000bd5825462000991565b62000be282828562000b07565b600060209050601f83116001811462000c1a576000841562000c05578287015190505b62000c11858262000b84565b86555062000c81565b601f19841662000c2a86620009c6565b60005b8281101562000c545784890151825560018201915060208501945060208101905062000c2d565b8683101562000c74578489015162000c70601f89168262000b64565b8355505b6001600288020188555050505b505050505050565b600082825260208201905092915050565b60005b8381101562000cba57808201518184015260208101905062000c9d565b60008484015250505050565b6000601f19601f8301169050919050565b600062000ce48262000928565b62000cf0818562000c89565b935062000d0281856020860162000c9a565b62000d0d8162000cc6565b840191505092915050565b6000602082019050818103600083015262000d34818462000cd7565b905092915050565b613c168062000d4c6000396000f3fe608060405234801561001057600080fd5b506004361061010b5760003560e01c8063514dc8c6116100a2578063a22cb46511610071578063a22cb465146102de578063b88d4fde146102fa578063c87b56dd14610316578063de9d132f14610346578063e985e9c5146103505761010b565b8063514dc8c6146102305780636352211e1461026057806370a082311461029057806395d89b41146102c05761010b565b8063095ea7b3116100de578063095ea7b3146101ac578063202207e8146101c857806323b872dd146101f857806342842e0e146102145761010b565b806301ffc9a714610110578063060475901461014057806306fdde031461015e578063081812fc1461017c575b600080fd5b61012a600480360381019061012591906122ff565b610380565b6040516101379190612347565b60405180910390f35b610148610462565b604051610155919061237b565b60405180910390f35b61016661049e565b6040516101739190612426565b60405180910390f35b61019660048036038101906101919190612474565b610530565b6040516101a391906124e2565b60405180910390f35b6101c660048036038101906101c19190612529565b610576565b005b6101e260048036038101906101dd9190612784565b61068d565b6040516101ef9190612426565b60405180910390f35b610212600480360381019061020d919061280f565b6106fd565b005b61022e6004803603810190610229919061280f565b61075d565b005b61024a60048036038101906102459190612474565b61077d565b6040516102579190612426565b60405180910390f35b61027a60048036038101906102759190612474565b610875565b60405161028791906124e2565b60405180910390f35b6102aa60048036038101906102a59190612862565b610926565b6040516102b7919061237b565b60405180910390f35b6102c86109dd565b6040516102d59190612426565b60405180910390f35b6102f860048036038101906102f391906128bb565b610a6f565b005b610314600480360381019061030f919061299c565b610a85565b005b610330600480360381019061032b9190612474565b610ae7565b60405161033d9190612426565b60405180910390f35b61034e610bf9565b005b61036a60048036038101906103659190612a1f565b611151565b6040516103779190612347565b60405180910390f35b60007f80ac58cd000000000000000000000000000000000000000000000000000000007bffffffffffffffffffffffffffffffffffffffffffffffffffffffff1916827bffffffffffffffffffffffffffffffffffffffffffffffffffffffff1916148061044b57507f5b5e139f000000000000000000000000000000000000000000000000000000007bffffffffffffffffffffffffffffffffffffffffffffffffffffffff1916827bffffffffffffffffffffffffffffffffffffffffffffffffffffffff1916145b8061045b575061045a8261127e565b5b9050919050565b600061048f604051806060016040528060248152602001613b7d6024913961048a60076112e8565b6112f6565b61049960076112e8565b905090565b6060600080546104ad90612a8e565b80601f01602080910402602001604051908101604052809291908181526020018280546104d990612a8e565b80156105265780601f106104fb57610100808354040283529160200191610526565b820191906000526020600020905b81548152906001019060200180831161050957829003601f168201915b5050505050905090565b600061053b82611392565b6004600083815260200190815260200160002060009054906101000a900473ffffffffffffffffffffffffffffffffffffffff169050919050565b600061058182610875565b90508073ffffffffffffffffffffffffffffffffffffffff168373ffffffffffffffffffffffffffffffffffffffff16036105f1576040517f08c379a00000000000000000000000000000000000000000000000000000000081526004016105e890612b31565b60405180910390fd5b8073ffffffffffffffffffffffffffffffffffffffff166106106113dd565b73ffffffffffffffffffffffffffffffffffffffff16148061063f575061063e816106396113dd565b611151565b5b61067e576040517f08c379a000000000000000000000000000000000000000000000000000000000815260040161067590612bc3565b60405180910390fd5b61068883836113e5565b505050565b606060006106c38461069e8561149e565b6040516020016106af929190612c1f565b6040516020818303038152906040526115fe565b9050600b80549050816106d69190612c72565b90508481815181106106eb576106ea612ca3565b5b60200260200101519150509392505050565b61070e6107086113dd565b82611631565b61074d576040517f08c379a000000000000000000000000000000000000000000000000000000000815260040161074490612d44565b60405180910390fd5b6107588383836116c6565b505050565b61077883838360405180602001604052806000815250610a85565b505050565b606060006107b161078d8461149e565b60405160200161079d9190612db0565b6040516020818303038152906040526115fe565b9050600e80549050816107c49190612c72565b9050600e81815481106107da576107d9612ca3565b5b9060005260206000200180546107ef90612a8e565b80601f016020809104026020016040519081016040528092919081815260200182805461081b90612a8e565b80156108685780601f1061083d57610100808354040283529160200191610868565b820191906000526020600020905b81548152906001019060200180831161084b57829003601f168201915b5050505050915050919050565b6000806002600084815260200190815260200160002060009054906101000a900473ffffffffffffffffffffffffffffffffffffffff169050600073ffffffffffffffffffffffffffffffffffffffff168173ffffffffffffffffffffffffffffffffffffffff160361091d576040517f08c379a000000000000000000000000000000000000000000000000000000000815260040161091490612e1e565b60405180910390fd5b80915050919050565b60008073ffffffffffffffffffffffffffffffffffffffff168273ffffffffffffffffffffffffffffffffffffffff1603610996576040517f08c379a000000000000000000000000000000000000000000000000000000000815260040161098d90612eb0565b60405180910390fd5b600360008373ffffffffffffffffffffffffffffffffffffffff1673ffffffffffffffffffffffffffffffffffffffff168152602001908152602001600020549050919050565b6060600180546109ec90612a8e565b80601f0160208091040260200160405190810160405280929190818152602001828054610a1890612a8e565b8015610a655780601f10610a3a57610100808354040283529160200191610a65565b820191906000526020600020905b815481529060010190602001808311610a4857829003601f168201915b5050505050905090565b610a81610a7a6113dd565b838361192c565b5050565b610a96610a906113dd565b83611631565b610ad5576040517f08c379a0000000000000000000000000000000000000000000000000000000008152600401610acc90612d44565b60405180910390fd5b610ae184848484611a98565b50505050565b6060610af282611392565b6000600660008481526020019081526020016000208054610b1290612a8e565b80601f0160208091040260200160405190810160405280929190818152602001828054610b3e90612a8e565b8015610b8b5780601f10610b6057610100808354040283529160200191610b8b565b820191906000526020600020905b815481529060010190602001808311610b6e57829003601f168201915b505050505090506000610b9c611af4565b90506000815103610bb1578192505050610bf4565b600082511115610be6578082604051602001610bce929190612c1f565b60405160208183030381529060405292505050610bf4565b610bef84611b0b565b925050505b919050565b6000610c0560076112e8565b9050600a8110610c4a576040517f08c379a0000000000000000000000000000000000000000000000000000000008152600401610c4190612f42565b60405180910390fd5b6000610d5d600b805480602002602001604051908101604052809291908181526020016000905b82821015610d1d578382906000526020600020018054610c9090612a8e565b80601f0160208091040260200160405190810160405280929190818152602001828054610cbc90612a8e565b8015610d095780601f10610cde57610100808354040283529160200191610d09565b820191906000526020600020905b815481529060010190602001808311610cec57829003601f168201915b505050505081526020019060010190610c71565b505050506040518060400160405280600981526020017f6669727374576f726400000000000000000000000000000000000000000000008152508461068d565b90506000610e72600c805480602002602001604051908101604052809291908181526020016000905b82821015610e32578382906000526020600020018054610da590612a8e565b80601f0160208091040260200160405190810160405280929190818152602001828054610dd190612a8e565b8015610e1e5780601f10610df357610100808354040283529160200191610e1e565b820191906000526020600020905b815481529060010190602001808311610e0157829003601f168201915b505050505081526020019060010190610d86565b505050506040518060400160405280600a81526020017f7365636f6e64576f7264000000000000000000000000000000000000000000008152508561068d565b90506000610f87600d805480602002602001604051908101604052809291908181526020016000905b82821015610f47578382906000526020600020018054610eba90612a8e565b80601f0160208091040260200160405190810160405280929190818152602001828054610ee690612a8e565b8015610f335780601f10610f0857610100808354040283529160200191610f33565b820191906000526020600020905b815481529060010190602001808311610f1657829003601f168201915b505050505081526020019060010190610e9b565b505050506040518060400160405280600981526020017f7468697264576f726400000000000000000000000000000000000000000000008152508661068d565b90506000838383604051602001610fa093929190612f62565b60405160208183030381529060405290506000610fbc8661077d565b90506000600882600985600a604051602001610fdc95949392919061302b565b6040516020818303038152906040529050600061102184610ffc84611b73565b60405160200161100d9291906131cc565b604051602081830303815290604052611b73565b9050600081604051602001611036919061325d565b60405160208183030381529060405290506110856040518060400160405280601581526020017f0a2d2d2d2d2d2d2d2d2d2d2d2d2d2d2d2d2d2d2d2d00000000000000000000008152506111e5565b61108e816111e5565b6110cc6040518060400160405280601581526020017f2d2d2d2d2d2d2d2d2d2d2d2d2d2d2d2d2d2d2d2d0a00000000000000000000008152506111e5565b6110d6338a611cd6565b6110e08982611cf4565b6110ea6007611d61565b61110d604051806060016040528060258152602001613b58602591398a33611d77565b7febb98688741ffa4c7589bf325de30cf7becb63de567842e1ccdb6cb949fdc82c338a60405161113e92919061327f565b60405180910390a1505050505050505050565b6000600560008473ffffffffffffffffffffffffffffffffffffffff1673ffffffffffffffffffffffffffffffffffffffff16815260200190815260200160002060008373ffffffffffffffffffffffffffffffffffffffff1673ffffffffffffffffffffffffffffffffffffffff16815260200190815260200160002060009054906101000a900460ff16905092915050565b61127b816040516024016111f99190612426565b6040516020818303038152906040527f41304fac000000000000000000000000000000000000000000000000000000007bffffffffffffffffffffffffffffffffffffffffffffffffffffffff19166020820180517bffffffffffffffffffffffffffffffffffffffffffffffffffffffff8381831617835250505050611e16565b50565b60007f01ffc9a7000000000000000000000000000000000000000000000000000000007bffffffffffffffffffffffffffffffffffffffffffffffffffffffff1916827bffffffffffffffffffffffffffffffffffffffffffffffffffffffff1916149050919050565b600081600001549050919050565b61138e828260405160240161130c9291906132a8565b6040516020818303038152906040527fb60e72cc000000000000000000000000000000000000000000000000000000007bffffffffffffffffffffffffffffffffffffffffffffffffffffffff19166020820180517bffffffffffffffffffffffffffffffffffffffffffffffffffffffff8381831617835250505050611e16565b5050565b61139b81611e3f565b6113da576040517f08c379a00000000000000000000000000000000000000000000000000000000081526004016113d190612e1e565b60405180910390fd5b50565b600033905090565b816004600083815260200190815260200160002060006101000a81548173ffffffffffffffffffffffffffffffffffffffff021916908373ffffffffffffffffffffffffffffffffffffffff160217905550808273ffffffffffffffffffffffffffffffffffffffff1661145883610875565b73ffffffffffffffffffffffffffffffffffffffff167f8c5be1e5ebec7d5bd14f71427d1e84f3dd0314c0f7b2291e5b200ac8c7c3b92560405160405180910390a45050565b6060600082036114e5576040518060400160405280600181526020017f300000000000000000000000000000000000000000000000000000000000000081525090506115f9565b600082905060005b6000821461151757808061150090613307565b915050600a82611510919061334f565b91506114ed565b60008167ffffffffffffffff8111156115335761153261256e565b5b6040519080825280601f01601f1916602001820160405280156115655781602001600182028036833780820191505090505b5090505b600085146115f25760018261157e9190613380565b9150600a8561158d9190612c72565b603061159991906133b4565b60f81b8183815181106115af576115ae612ca3565b5b60200101907effffffffffffffffffffffffffffffffffffffffffffffffffffffffffffff1916908160001a905350600a856115eb919061334f565b9450611569565b8093505050505b919050565b60008160405160200161161191906133e8565b6040516020818303038152906040528051906020012060001c9050919050565b60008061163d83610875565b90508073ffffffffffffffffffffffffffffffffffffffff168473ffffffffffffffffffffffffffffffffffffffff16148061167f575061167e8185611151565b5b806116bd57508373ffffffffffffffffffffffffffffffffffffffff166116a584610530565b73ffffffffffffffffffffffffffffffffffffffff16145b91505092915050565b8273ffffffffffffffffffffffffffffffffffffffff166116e682610875565b73ffffffffffffffffffffffffffffffffffffffff161461173c576040517f08c379a000000000000000000000000000000000000000000000000000000000815260040161173390613471565b60405180910390fd5b600073ffffffffffffffffffffffffffffffffffffffff168273ffffffffffffffffffffffffffffffffffffffff16036117ab576040517f08c379a00000000000000000000000000000000000000000000000000000000081526004016117a290613503565b60405180910390fd5b6117b6838383611eab565b6117c16000826113e5565b6001600360008573ffffffffffffffffffffffffffffffffffffffff1673ffffffffffffffffffffffffffffffffffffffff16815260200190815260200160002060008282546118119190613380565b925050819055506001600360008473ffffffffffffffffffffffffffffffffffffffff1673ffffffffffffffffffffffffffffffffffffffff168152602001908152602001600020600082825461186891906133b4565b92505081905550816002600083815260200190815260200160002060006101000a81548173ffffffffffffffffffffffffffffffffffffffff021916908373ffffffffffffffffffffffffffffffffffffffff160217905550808273ffffffffffffffffffffffffffffffffffffffff168473ffffffffffffffffffffffffffffffffffffffff167fddf252ad1be2c89b69c2b068fc378daa952ba7f163c4a11628f55a4df523b3ef60405160405180910390a4611927838383611eb0565b505050565b8173ffffffffffffffffffffffffffffffffffffffff168373ffffffffffffffffffffffffffffffffffffffff160361199a576040517f08c379a00000000000000000000000000000000000000000000000000000000081526004016119919061356f565b60405180910390fd5b80600560008573ffffffffffffffffffffffffffffffffffffffff1673ffffffffffffffffffffffffffffffffffffffff16815260200190815260200160002060008473ffffffffffffffffffffffffffffffffffffffff1673ffffffffffffffffffffffffffffffffffffffff16815260200190815260200160002060006101000a81548160ff0219169083151502179055508173ffffffffffffffffffffffffffffffffffffffff168373ffffffffffffffffffffffffffffffffffffffff167f17307eab39ab6107e8899845ad3d59bd9653f200f220920489ca2b5937696c3183604051611a8b9190612347565b60405180910390a3505050565b611aa38484846116c6565b611aaf84848484611eb5565b611aee576040517f08c379a0000000000000000000000000000000000000000000000000000000008152600401611ae590613601565b60405180910390fd5b50505050565b606060405180602001604052806000815250905090565b6060611b1682611392565b6000611b20611af4565b90506000815111611b405760405180602001604052806000815250611b6b565b80611b4a8461149e565b604051602001611b5b929190612c1f565b6040516020818303038152906040525b915050919050565b60606000825103611b9557604051806020016040528060008152509050611cd1565b6000604051806060016040528060408152602001613ba16040913990506000600360028551611bc491906133b4565b611bce919061334f565b6004611bda9190613621565b67ffffffffffffffff811115611bf357611bf261256e565b5b6040519080825280601f01601f191660200182016040528015611c255781602001600182028036833780820191505090505b509050600182016020820185865187015b80821015611c91576003820191508151603f8160121c168501518453600184019350603f81600c1c168501518453600184019350603f8160061c168501518453600184019350603f8116850151845360018401935050611c36565b5050600386510660018114611cad5760028114611cc057611cc8565b603d6001830353603d6002830353611cc8565b603d60018303535b50505080925050505b919050565b611cf082826040518060200160405280600081525061203c565b5050565b611cfd82611e3f565b611d3c576040517f08c379a0000000000000000000000000000000000000000000000000000000008152600401611d33906136d5565b60405180910390fd5b80600660008481526020019081526020016000209081611d5c919061388c565b505050565b6001816000016000828254019250508190555050565b611e11838383604051602401611d8f9392919061395e565b6040516020818303038152906040527f1c7ec448000000000000000000000000000000000000000000000000000000007bffffffffffffffffffffffffffffffffffffffffffffffffffffffff19166020820180517bffffffffffffffffffffffffffffffffffffffffffffffffffffffff8381831617835250505050611e16565b505050565b60008151905060006a636f6e736f6c652e6c6f679050602083016000808483855afa5050505050565b60008073ffffffffffffffffffffffffffffffffffffffff166002600084815260200190815260200160002060009054906101000a900473ffffffffffffffffffffffffffffffffffffffff1673ffffffffffffffffffffffffffffffffffffffff1614159050919050565b505050565b505050565b6000611ed68473ffffffffffffffffffffffffffffffffffffffff16612097565b1561202f578373ffffffffffffffffffffffffffffffffffffffff1663150b7a02611eff6113dd565b8786866040518563ffffffff1660e01b8152600401611f2194939291906139f1565b6020604051808303816000875af1925050508015611f5d57506040513d601f19601f82011682018060405250810190611f5a9190613a52565b60015b611fdf573d8060008114611f8d576040519150601f19603f3d011682016040523d82523d6000602084013e611f92565b606091505b506000815103611fd7576040517f08c379a0000000000000000000000000000000000000000000000000000000008152600401611fce90613601565b60405180910390fd5b805181602001fd5b63150b7a0260e01b7bffffffffffffffffffffffffffffffffffffffffffffffffffffffff1916817bffffffffffffffffffffffffffffffffffffffffffffffffffffffff191614915050612034565b600190505b949350505050565b61204683836120ba565b6120536000848484611eb5565b612092576040517f08c379a000000000000000000000000000000000000000000000000000000000815260040161208990613601565b60405180910390fd5b505050565b6000808273ffffffffffffffffffffffffffffffffffffffff163b119050919050565b600073ffffffffffffffffffffffffffffffffffffffff168273ffffffffffffffffffffffffffffffffffffffff1603612129576040517f08c379a000000000000000000000000000000000000000000000000000000000815260040161212090613acb565b60405180910390fd5b61213281611e3f565b15612172576040517f08c379a000000000000000000000000000000000000000000000000000000000815260040161216990613b37565b60405180910390fd5b61217e60008383611eab565b6001600360008473ffffffffffffffffffffffffffffffffffffffff1673ffffffffffffffffffffffffffffffffffffffff16815260200190815260200160002060008282546121ce91906133b4565b92505081905550816002600083815260200190815260200160002060006101000a81548173ffffffffffffffffffffffffffffffffffffffff021916908373ffffffffffffffffffffffffffffffffffffffff160217905550808273ffffffffffffffffffffffffffffffffffffffff16600073ffffffffffffffffffffffffffffffffffffffff167fddf252ad1be2c89b69c2b068fc378daa952ba7f163c4a11628f55a4df523b3ef60405160405180910390a461228f60008383611eb0565b5050565b6000604051905090565b600080fd5b600080fd5b60007fffffffff0000000000000000000000000000000000000000000000000000000082169050919050565b6122dc816122a7565b81146122e757600080fd5b50565b6000813590506122f9816122d3565b92915050565b6000602082840312156123155761231461229d565b5b6000612323848285016122ea565b91505092915050565b60008115159050919050565b6123418161232c565b82525050565b600060208201905061235c6000830184612338565b92915050565b6000819050919050565b61237581612362565b82525050565b6000602082019050612390600083018461236c565b92915050565b600081519050919050565b600082825260208201905092915050565b60005b838110156123d05780820151818401526020810190506123b5565b60008484015250505050565b6000601f19601f8301169050919050565b60006123f882612396565b61240281856123a1565b93506124128185602086016123b2565b61241b816123dc565b840191505092915050565b6000602082019050818103600083015261244081846123ed565b905092915050565b61245181612362565b811461245c57600080fd5b50565b60008135905061246e81612448565b92915050565b60006020828403121561248a5761248961229d565b5b60006124988482850161245f565b91505092915050565b600073ffffffffffffffffffffffffffffffffffffffff82169050919050565b60006124cc826124a1565b9050919050565b6124dc816124c1565b82525050565b60006020820190506124f760008301846124d3565b92915050565b612506816124c1565b811461251157600080fd5b50565b600081359050612523816124fd565b92915050565b600080604083850312156125405761253f61229d565b5b600061254e85828601612514565b925050602061255f8582860161245f565b9150509250929050565b600080fd5b7f4e487b7100000000000000000000000000000000000000000000000000000000600052604160045260246000fd5b6125a6826123dc565b810181811067ffffffffffffffff821117156125c5576125c461256e565b5b80604052505050565b60006125d8612293565b90506125e4828261259d565b919050565b600067ffffffffffffffff8211156126045761260361256e565b5b602082029050602081019050919050565b600080fd5b600080fd5b600067ffffffffffffffff82111561263a5761263961256e565b5b612643826123dc565b9050602081019050919050565b82818337600083830152505050565b600061267261266d8461261f565b6125ce565b90508281526020810184848401111561268e5761268d61261a565b5b612699848285612650565b509392505050565b600082601f8301126126b6576126b5612569565b5b81356126c684826020860161265f565b91505092915050565b60006126e26126dd846125e9565b6125ce565b9050808382526020820190506020840283018581111561270557612704612615565b5b835b8181101561274c57803567ffffffffffffffff81111561272a57612729612569565b5b80860161273789826126a1565b85526020850194505050602081019050612707565b5050509392505050565b600082601f83011261276b5761276a612569565b5b813561277b8482602086016126cf565b91505092915050565b60008060006060848603121561279d5761279c61229d565b5b600084013567ffffffffffffffff8111156127bb576127ba6122a2565b5b6127c786828701612756565b935050602084013567ffffffffffffffff8111156127e8576127e76122a2565b5b6127f4868287016126a1565b92505060406128058682870161245f565b9150509250925092565b6000806000606084860312156128285761282761229d565b5b600061283686828701612514565b935050602061284786828701612514565b92505060406128588682870161245f565b9150509250925092565b6000602082840312156128785761287761229d565b5b600061288684828501612514565b91505092915050565b6128988161232c565b81146128a357600080fd5b50565b6000813590506128b58161288f565b92915050565b600080604083850312156128d2576128d161229d565b5b60006128e085828601612514565b92505060206128f1858286016128a6565b9150509250929050565b600067ffffffffffffffff8211156129165761291561256e565b5b61291f826123dc565b9050602081019050919050565b600061293f61293a846128fb565b6125ce565b90508281526020810184848401111561295b5761295a61261a565b5b612966848285612650565b509392505050565b600082601f83011261298357612982612569565b5b813561299384826020860161292c565b91505092915050565b600080600080608085870312156129b6576129b561229d565b5b60006129c487828801612514565b94505060206129d587828801612514565b93505060406129e68782880161245f565b925050606085013567ffffffffffffffff811115612a0757612a066122a2565b5b612a138782880161296e565b91505092959194509250565b60008060408385031215612a3657612a3561229d565b5b6000612a4485828601612514565b9250506020612a5585828601612514565b9150509250929050565b7f4e487b7100000000000000000000000000000000000000000000000000000000600052602260045260246000fd5b60006002820490506001821680612aa657607f821691505b602082108103612ab957612ab8612a5f565b5b50919050565b7f4552433732313a20617070726f76616c20746f2063757272656e74206f776e6560008201527f7200000000000000000000000000000000000000000000000000000000000000602082015250565b6000612b1b6021836123a1565b9150612b2682612abf565b604082019050919050565b60006020820190508181036000830152612b4a81612b0e565b9050919050565b7f4552433732313a20617070726f76652063616c6c6572206973206e6f7420746f60008201527f6b656e206f776e6572206e6f7220617070726f76656420666f7220616c6c0000602082015250565b6000612bad603e836123a1565b9150612bb882612b51565b604082019050919050565b60006020820190508181036000830152612bdc81612ba0565b9050919050565b600081905092915050565b6000612bf982612396565b612c038185612be3565b9350612c138185602086016123b2565b80840191505092915050565b6000612c2b8285612bee565b9150612c378284612bee565b91508190509392505050565b7f4e487b7100000000000000000000000000000000000000000000000000000000600052601260045260246000fd5b6000612c7d82612362565b9150612c8883612362565b925082612c9857612c97612c43565b5b828206905092915050565b7f4e487b7100000000000000000000000000000000000000000000000000000000600052603260045260246000fd5b7f4552433732313a2063616c6c6572206973206e6f7420746f6b656e206f776e6560008201527f72206e6f7220617070726f766564000000000000000000000000000000000000602082015250565b6000612d2e602e836123a1565b9150612d3982612cd2565b604082019050919050565b60006020820190508181036000830152612d5d81612d21565b9050919050565b7f434f4c4f52000000000000000000000000000000000000000000000000000000600082015250565b6000612d9a600583612be3565b9150612da582612d64565b600582019050919050565b6000612dbb82612d8d565b9150612dc78284612bee565b915081905092915050565b7f4552433732313a20696e76616c696420746f6b656e2049440000000000000000600082015250565b6000612e086018836123a1565b9150612e1382612dd2565b602082019050919050565b60006020820190508181036000830152612e3781612dfb565b9050919050565b7f4552433732313a2061646472657373207a65726f206973206e6f74206120766160008201527f6c6964206f776e65720000000000000000000000000000000000000000000000602082015250565b6000612e9a6029836123a1565b9150612ea582612e3e565b604082019050919050565b60006020820190508181036000830152612ec981612e8d565b9050919050565b7f3130204e465473206861766520616c7265616479206265656e206d696e74656460008201527f2e204e6f206d6f7265206c65667420746f206d696e7421000000000000000000602082015250565b6000612f2c6037836123a1565b9150612f3782612ed0565b604082019050919050565b60006020820190508181036000830152612f5b81612f1f565b9050919050565b6000612f6e8286612bee565b9150612f7a8285612bee565b9150612f868284612bee565b9150819050949350505050565b60008190508160005260206000209050919050565b60008154612fb581612a8e565b612fbf8186612be3565b94506001821660008114612fda5760018114612fef57613022565b60ff1983168652811515820286019350613022565b612ff885612f93565b60005b8381101561301a57815481890152600182019150602081019050612ffb565b838801955050505b50505092915050565b60006130378288612fa8565b91506130438287612bee565b915061304f8286612fa8565b915061305b8285612bee565b91506130678284612fa8565b91508190509695505050505050565b7f7b226e616d65223a202200000000000000000000000000000000000000000000600082015250565b60006130ac600a83612be3565b91506130b782613076565b600a82019050919050565b7f222c20226465736372697074696f6e223a20224120686967686c79206163636c60008201527f61696d656420636f6c6c656374696f6e206f66204c4152494e204e46542e222c60208201527f2022696d616765223a2022646174613a696d6167652f7376672b786d6c3b626160408201527f736536342c000000000000000000000000000000000000000000000000000000606082015250565b600061316a606583612be3565b9150613175826130c2565b606582019050919050565b7f227d000000000000000000000000000000000000000000000000000000000000600082015250565b60006131b6600283612be3565b91506131c182613180565b600282019050919050565b60006131d78261309f565b91506131e38285612bee565b91506131ee8261315d565b91506131fa8284612bee565b9150613205826131a9565b91508190509392505050565b7f646174613a6170706c69636174696f6e2f6a736f6e3b6261736536342c000000600082015250565b6000613247601d83612be3565b915061325282613211565b601d82019050919050565b60006132688261323a565b91506132748284612bee565b915081905092915050565b600060408201905061329460008301856124d3565b6132a1602083018461236c565b9392505050565b600060408201905081810360008301526132c281856123ed565b90506132d1602083018461236c565b9392505050565b7f4e487b7100000000000000000000000000000000000000000000000000000000600052601160045260246000fd5b600061331282612362565b91507fffffffffffffffffffffffffffffffffffffffffffffffffffffffffffffffff8203613344576133436132d8565b5b600182019050919050565b600061335a82612362565b915061336583612362565b92508261337557613374612c43565b5b828204905092915050565b600061338b82612362565b915061339683612362565b92508282039050818111156133ae576133ad6132d8565b5b92915050565b60006133bf82612362565b91506133ca83612362565b92508282019050808211156133e2576133e16132d8565b5b92915050565b60006133f48284612bee565b915081905092915050565b7f4552433732313a207472616e736665722066726f6d20696e636f72726563742060008201527f6f776e6572000000000000000000000000000000000000000000000000000000602082015250565b600061345b6025836123a1565b9150613466826133ff565b604082019050919050565b6000602082019050818103600083015261348a8161344e565b9050919050565b7f4552433732313a207472616e7366657220746f20746865207a65726f2061646460008201527f7265737300000000000000000000000000000000000000000000000000000000602082015250565b60006134ed6024836123a1565b91506134f882613491565b604082019050919050565b6000602082019050818103600083015261351c816134e0565b9050919050565b7f4552433732313a20617070726f766520746f2063616c6c657200000000000000600082015250565b60006135596019836123a1565b915061356482613523565b602082019050919050565b600060208201905081810360008301526135888161354c565b9050919050565b7f4552433732313a207472616e7366657220746f206e6f6e20455243373231526560008201527f63656976657220696d706c656d656e7465720000000000000000000000000000602082015250565b60006135eb6032836123a1565b91506135f68261358f565b604082019050919050565b6000602082019050818103600083015261361a816135de565b9050919050565b600061362c82612362565b915061363783612362565b925082820261364581612362565b9150828204841483151761365c5761365b6132d8565b5b5092915050565b7f45524337323155524953746f726167653a2055524920736574206f66206e6f6e60008201527f6578697374656e7420746f6b656e000000000000000000000000000000000000602082015250565b60006136bf602e836123a1565b91506136ca82613663565b604082019050919050565b600060208201905081810360008301526136ee816136b2565b9050919050565b60006020601f8301049050919050565b600082821b905092915050565b6000600883026137427fffffffffffffffffffffffffffffffffffffffffffffffffffffffffffffffff82613705565b61374c8683613705565b95508019841693508086168417925050509392505050565b6000819050919050565b600061378961378461377f84612362565b613764565b612362565b9050919050565b6000819050919050565b6137a38361376e565b6137b76137af82613790565b848454613712565b825550505050565b600090565b6137cc6137bf565b6137d781848461379a565b505050565b5b818110156137fb576137f06000826137c4565b6001810190506137dd565b5050565b601f8211156138405761381181612f93565b61381a846136f5565b81016020851015613829578190505b61383d613835856136f5565b8301826137dc565b50505b505050565b600082821c905092915050565b600061386360001984600802613845565b1980831691505092915050565b600061387c8383613852565b9150826002028217905092915050565b61389582612396565b67ffffffffffffffff8111156138ae576138ad61256e565b5b6138b88254612a8e565b6138c38282856137ff565b600060209050601f8311600181146138f657600084156138e4578287015190505b6138ee8582613870565b865550613956565b601f19841661390486612f93565b60005b8281101561392c57848901518255600182019150602085019450602081019050613907565b868310156139495784890151613945601f891682613852565b8355505b6001600288020188555050505b505050505050565b6000606082019050818103600083015261397881866123ed565b9050613987602083018561236c565b61399460408301846124d3565b949350505050565b600081519050919050565b600082825260208201905092915050565b60006139c38261399c565b6139cd81856139a7565b93506139dd8185602086016123b2565b6139e6816123dc565b840191505092915050565b6000608082019050613a0660008301876124d3565b613a1360208301866124d3565b613a20604083018561236c565b8181036060830152613a3281846139b8565b905095945050505050565b600081519050613a4c816122d3565b92915050565b600060208284031215613a6857613a6761229d565b5b6000613a7684828501613a3d565b91505092915050565b7f4552433732313a206d696e7420746f20746865207a65726f2061646472657373600082015250565b6000613ab56020836123a1565b9150613ac082613a7f565b602082019050919050565b60006020820190508181036000830152613ae481613aa8565b9050919050565b7f4552433732313a20746f6b656e20616c7265616479206d696e74656400000000600082015250565b6000613b21601c836123a1565b9150613b2c82613aeb565b602082019050919050565b60006020820190508181036000830152613b5081613b14565b905091905056fe416e204e465420772f20494420257320686173206265656e206d696e74656420746f20257357652068617665206d696e746564202564204e46547320736f206661722e20576f6168214142434445464748494a4b4c4d4e4f505152535455565758595a6162636465666768696a6b6c6d6e6f707172737475767778797a303132333435363738392b2fa2646970667358221220a3f42ad3d5a5464c5c8414ac21ffe4282cab5106e63394f39f52320bbbeacb5164736f6c634300081100333c73766720786d6c6e733d27687474703a2f2f7777772e77332e6f72672f323030302f73766727207072657365727665417370656374526174696f3d27784d696e594d696e206d656574272076696577426f783d273020302033353020333530273e3c7374796c653e2e62617365207b2066696c6c3a2077686974653b20666f6e742d66616d696c793a2073657269663b20666f6e742d73697a653a20323470783b207d3c2f7374796c653e3c726563742077696474683d273130302527206865696768743d2731303025272066696c6c3d2754686973206973206d79204c4152494e204e465420636f6e74726163742e20576f616821272f3e3c7465787420783d273530252720793d273530252720636c6173733d27626173652720646f6d696e616e742d626173656c696e653d276d6964646c652720746578742d616e63686f723d276d6964646c65273e",
  "linkReferences": {},
  "deployedLinkReferences": {}
}